:020000040800F2
:100000001804002001010008090100080B01000884
:100010000D0100080F010008110100080000000098
:1000200000000000000000000000000013010008B4
:100030001501000800000000170100081901000860
:100040001B0100081B0100081B0100081B01000820
:100050001B0100081B0100081B0100081B01000810
:100060001B0100081B0100081B0100081B01000800
:100070001B0100081B0100081B0100081B010008F0
:100080001B0100081B0100081B0100081B010008E0
:100090001B0100081B0100081B0100081B010008D0
:1000A0001B0100081B0100081B0100081B010008C0
:1000B0001B0100081B0100081B0100081B010008B0
:1000C0001B0100081B0100081B0100081B010008A0
:1000D0001B0100081B0100081B0100081B01000890
:1000E0001B0100081B0100081B010008DFF80CD0F1
:1000F00000F018F8004800472906000818040020FE
:100100000648804706480047FEE7FEE7FEE7FEE7B1
:10011000FEE7FEE7FEE7FEE7FEE7FEE76504000810
:10012000ED000008064C074D06E0E06840F00103D2
:1001300094E8070098471034AC42F6D3FFF7DAFF93
:10014000B8060008D80600082DE9F041024600254F
:100150000026002000230024002791F803C00CF0A3
:100160000F0591F803C00CF0100CBCF1000F03D088
:1001700091F802C04CEA050591F800C0BCF1000FEF
:1001800031D0146800202BE04FF0010C0CFA00F382
:10019000B1F800C00CEA03069E4220D183004FF064
:1001A0000F0C0CFA03F7BC4305FA03FC4CEA0404F9
:1001B00091F803C0BCF1280F06D14FF0010C0CFAE6
:1001C00000FCC2F814C00AE091F803C0BCF1480F6B
:1001D00005D14FF0010C0CFA00FCC2F810C0401C15
:1001E0000828D1D31460B1F800C0BCF1FF0F34DD92
:1001F000546800202EE000F1080C4FF0010808FAC6
:100200000CF3B1F800C00CEA03069E4221D1830032
:100210004FF00F0C0CFA03F7BC4305FA03FC4CEA51
:10022000040491F803C0BCF1280F05D100F1080CBB
:1002300008FA0CF8C2F8148091F803C0BCF1480F1A
:1002400007D100F1080C4FF0010808FA0CF8C2F8C9
:100250001080401C0828CED35460BDE8F081000017
:1002600029B1064A92690243044B9A6104E0034AA9
:1002700092698243014B9A6170470000001002406E
:1002800030B500210022002400232D4D6D6805F0BB
:100290000C0121B1042905D0082923D105E0294DFD
:1002A000056022E0274D05601FE0254D6D6805F4CF
:1002B0007012234D6D6805F48034022505EB9242DF
:1002C0001CB9214D554305600BE01D4D6D6805F4CB
:1002D00000351DB11C4D5543056002E0194D5543D5
:1002E000056002E0174D056000BF00BF144D6D684A
:1002F00005F0F0010909154D6B5C0568DD404560AE
:100300000F4D6D6805F4E061090A104D6B5C45689E
:10031000DD4085600A4D6D6805F46051C90A0B4DDA
:100320006B5C4568DD40C560054D6D6805F4404176
:10033000890B074D6B5CC568B5FBF3F5056130BDF6
:100340000010024000127A0000093D000000002069
:100350001000002010B500F001F810BD0CB5002011
:10036000019000903348006840F4803031490860C3
:1003700000BF3048006800F4003000900198401C35
:100380000190009818B90198B0F5A06FF1D12948F3
:10039000006800F4003010B10120009001E000205E
:1003A00000900098012843D12348006840F01000D5
:1003B000214908600846006820F0030008600846EC
:1003C000006840F0020008601A4840681949486017
:1003D0000846406848600846406840F480604860CD
:1003E0000846406820F47C1048600846406840F4A5
:1003F000E81048600846006840F08070086000BF60
:100400000C48006800F000700028F9D009484068E6
:1004100020F00300074948600846406840F00200A9
:10042000486000BF0348406800F00C000828F9D17C
:100430000CBD00000010024000200240042808D13A
:100440004FF0E021096941F004014FF0E022116111
:1004500007E04FF0E021096921F004014FF0E022AC
:100460001161704710B51348006840F00100114950
:10047000086008464068104908400E494860084630
:1004800000680E4908400B4908600846006820F4DF
:10049000802008600846406820F4FE0048604FF461
:1004A0001F008860FFF756FF4FF0006004490860A6
:1004B00010BD0000001002400000FFF8FFFFF6FE34
:1004C00008ED00E021B1828942F40052828104E00B
:1004D00082894DF6FF731A40828170472DE9F047FB
:1004E00086B005460E460024A24600BFA14600275E
:1004F000B08900B100BF2F462C8A4CF6FF70044033
:10050000F08804432C82AC894EF6F3100440B08886
:1005100031890843718908430443AC81AC8A4FF6A2
:10052000FF400440B0890443AC8201A8FFF7A8FE55
:100530001F48874202D1DDF810A001E0DDF80CA0D1
:10054000A88900F4004040B10AEBCA0000EB0A1091
:1005500031684900B0FBF1F807E00AEBCA0000EB94
:100560000A1031688900B0FBF1F86420B8FBF0F0A4
:1005700004012009642101FB1089A88900F40040CE
:1005800040B1322000EBC900B0FBF1F000F00700F1
:10059000044308E0322000EB09106421B0FBF1F0C5
:1005A00000F00F0004432C8106B0BDE8F087000086
:1005B00000380140C1F30802828070474FF41651A1
:1005C000016000218180C18001810C2141810021D5
:1005D0008181704702E008C8121F08C1002AFAD1C1
:1005E00070477047002001E001C1121F002AFBD1B3
:1005F000704700000B4941434FF0E0225161114622
:10060000096941F00101116100BF4FF0E021096962
:1006100001F480310029F8D000214FF0E02211616F
:10062000916170474019010008B50420FFF706FFEB
:1006300001210420FFF714FE10208DF80300032091
:100640008DF802000220ADF8000069460D48FFF762
:100650007BFD18208DF803008001ADF8000069468D
:100660000848FFF771FD00F011F80AE04FF47A70C6
:10067000FFF7C0FF2046641C613081B20248FFF7DB
:1006800099FFF3E700080140003801401FB5012140
:100690008803FFF7E5FD6846FFF790FF4FF4E13070
:1006A000009069460348FFF719FF01210148FFF751
:1006B00009FF1FBD00380140D806000800000020D7
:1006C00014000000D4050008EC0600081400002007
:1006D00004040000E4050008000000000102030417
:0C06E000010203040607080902040608D2
:0400000508000101ED
:00000001FF
